S01D00004365727261647572615F656C656374726F6E6963612E7372656386
S11300000C9454000C9469000C9469000C946900DD
S11300100C9469000C9469000C9469000C946900B8
S11300200C9469000C9469000C9469000C946900A8
S11300300C9469000C9469000C9469000C94690098
S11300400C9469000C9469000C9469000C94690088
S11300500C9469000C9469000C9469000C94690078
S11300600C9469000C946900001F000000001F003C
S1130070001F101010101F00001F181818181F0060
S1130080001F1C1C1C1C1F00001F1E1E1E1E1F0008
S1130090001F1F1F1F1F1F0003070F1F0F07030051
S11300A0181C1E1F1E1C180011241FBECFEFD8E001
S11300B0DEBFCDBF11E0A0E0B1E0E4EFF2E002C0AA
S11300C005900D92AA30B107D9F70E9458010C94FB
S11300D078010C940000982F907F95B9289A2A9A59
S11300E02AE62A95F1F700C02A9828989AE69A9564
S11300F0F1F700C020E1829FC001112485B9289A3C
S11301002A9A8AE68A95F1F700C02A9828989AE6EE
S11301109A95F1F700C00895982F907F95B92A9A7F
S1130120EFECF7E03197F1F700C000002A98EFEC0C
S1130130F7E03197F1F700C00000F0E18F9FC001B4
S1130140112485B92A9A8FEC97E00197F1F700C042
S113015000002A98EFECF7E03197F1F700C00000B7
S11301600895623031F0633031F0613029F4805CFD
S113017003C08C5E01C08C5A80680E948C00089574
S1130180FF920F931F93CF93DF93660F660F660F53
S11301906064EC016894FF24F3F8F60EFE01049108
S11301A011E0160F862F0E948C00802F0E946B0096
S11301B02196612F1F11F2CFDF91CF911F910F91E3
S11301C0FF9008951F93CF93DF938FE295E70197F4
S11301D0F1F700C0000015B815B884B1806F84B978
S11301E084B1876084B980E385B92A9AEFECF7E09B
S11301F03197F1F700C000002A98EFECF7E031974F
S1130200F1F700C0000085B92A9A8FEC97E00197B6
S1130210F1F700C000002A98EFECF7E03197F1F70E
S113022000C0000080E285B92A9A8FEC97E001971C
S1130230F1F700C000002A98EFECF7E03197F1F7EE
S113024000C0000088E20E948C008CE00E948C00B8
S1130250C8E6D0E060E011E0160FCE010E94C000B5
S11302602896612F1830B9F7DF91CF911F91089527
S11302708FE00E948C0008950F931F93CF938C01FD
S113028060E080E00E94B10080910001882361F069
S1130290C0E0F801EC0FF11D80810E946B00CF5F7C
S11302A080910001C817A8F3CF911F910F91089571
S11302B0CF93DF93CDB7DEB728970FB6F894DEBFA0
S11302C00FBECDBF88E0E1E0F1E0DE0111960190C0
S11302D00D928A95E1F70E94E200CE0101960E94F8
S11302E03C0160E080E00E94B1000E943801FFCF31
S10702F0F894FFCFAC
S10D02F41031363A32303A3030004F
S9030000FC
