:100000000C9454000C9471000C9471000C947100C9
:100010000C9471000C9471000C9471000C9471009C
:100020000C9471000C9471000C9471000C9471008C
:100030000C9471000C9471000C9471000C9471007C
:100040000C9471000C9471000C9471000C9471006C
:100050000C9471000C9471000C9471000C9471005C
:100060000C9471000C947100001F000000001F0030
:10007000001F101010101F00001F181818181F0064
:10008000001F1C1C1C1C1F00001F1E1E1E1E1F000C
:10009000001F1F1F1F1F1F0003070F1F0F07030055
:1000A000181C1E1F1E1C180011241FBECFEFD8E005
:1000B000DEBFCDBF11E0A0E0B1E0ECE0F3E002C0B4
:1000C00005900D92AC30B107D9F721E0ACE0B1E07A
:1000D00001C01D92AC30B207E1F70E9463010C949D
:1000E00084010C940000982F907F95B9289A2A9A41
:1000F0002AE62A95F1F700C02A9828989AE69A9558
:10010000F1F700C020E1829FC001112485B9289A2F
:100110002A9A8AE68A95F1F700C02A9828989AE6E2
:100120009A95F1F700C00895982F907F95B92A9A73
:10013000EFECF7E03197F1F700C000002A98EFEC00
:10014000F7E03197F1F700C00000F0E18F9FC001A8
:10015000112485B92A9A8FEC97E00197F1F700C036
:1001600000002A98EFECF7E03197F1F700C00000AB
:100170000895623031F0633031F0613029F4805CF1
:1001800003C08C5E01C08C5A80680E949400089560
:10019000FF920F931F93CF93DF93660F660F660F47
:1001A0006064EC016894FF24F3F8F60EFE010491FC
:1001B00011E0160F862F0E949400802F0E9473007A
:1001C0002196612F1F11F2CFDF91CF911F910F91D7
:1001D000FF9008951F93CF93DF938FE295E70197E8
:1001E000F1F700C0000015B815B884B1806F84B96C
:1001F00084B1876084B980E385B92A9AEFECF7E08F
:100200003197F1F700C000002A98EFECF7E0319742
:10021000F1F700C0000085B92A9A8FEC97E00197AA
:10022000F1F700C000002A98EFECF7E03197F1F702
:1002300000C0000080E285B92A9A8FEC97E0019710
:10024000F1F700C000002A98EFECF7E03197F1F7E2
:1002500000C0000088E20E9494008CE00E9494009C
:10026000C8E6D0E060E011E0160FCE010E94C800A1
:100270002896612F1830B9F7DF91CF911F9108951B
:10028000EF92FF920F931F93CF93DF937C01862F02
:10029000122F642F0E94B900112371F0E701115051
:1002A000012F10E00F5F1F4F0E0D1F1D89910E943F
:1002B0007300C017D107D1F7DF91CF911F910F9134
:1002C000FF90EF900895CF93DF93CDB7DEB72797D8
:1002D0000FB6F894DEBF0FBECDBF87E0E3E0F1E0DC
:1002E000DE01119601900D928A95E1F70E94EA00D5
:1002F00060E080E00E94B90027E041E060E0CE01CC
:0C03000001960E944001FFCFF894FFCF4F
:0C030C002563004345525241444F00005D
:00000001FF
