S01D00004365727261647572615F656C656374726F6E6963612E7372656386
S11300000C9454000C9469000C9469000C946900DD
S11300100C9469000C9469000C9469000C946900B8
S11300200C9469000C9469000C9469000C946900A8
S11300300C9469000C9469000C9469000C94690098
S11300400C9469000C9469000C9469000C94690088
S11300500C9469000C9469000C9469000C94690078
S11300600C9469000C946900001F000000001F003C
S1130070001F101010101F00001F181818181F0060
S1130080001F1C1C1C1C1F00001F1E1E1E1E1F0008
S1130090001F1F1F1F1F1F0003070F1F0F07030051
S11300A0181C1E1F1E1C180011241FBECFEFD8E001
S11300B0DEBFCDBF11E0A0E0B1E0E6E0F3E002C0B6
S11300C005900D92A830B107D9F70E9478010C94DD
S11300D081010C940000982F907F95B9289A2A9A50
S11300E02AE62A95F1F700C02A9828989AE69A9564
S11300F0F1F700C020E1829FC001112485B9289A3C
S11301002A9A8AE68A95F1F700C02A9828989AE6EE
S11301109A95F1F700C00895982F907F95B92A9A7F
S1130120EFECF7E03197F1F700C000002A98EFEC0C
S1130130F7E03197F1F700C00000F0E18F9FC001B4
S1130140112485B92A9A8FEC97E00197F1F700C042
S113015000002A98EFECF7E03197F1F700C00000B7
S11301600895623031F0633031F0613029F4805CFD
S113017003C08C5E01C08C5A80680E948C00089574
S11301800F931F93CF938C01862F642F0E94B1008D
S1130190C801F8012491222369F0C0E0FC01849194
S11301A00E946B00CF5FC8018C0F911DFC0124914C
S11301B0C217A0F3CF911F910F910895FF920F934F
S11301C01F93CF93DF93660F660F660F6064EC0195
S11301D06894FF24F3F8F60EFE01049111E0160F63
S11301E0862F0E948C00802F0E946B002196612F25
S11301F01F11F2CFDF91CF911F910F91FF900895BE
S11302001F93CF93DF938FE295E70197F1F700C037
S1130210000015B815B884B1806F84B984B18760C3
S113022084B980E385B92A9AEFECF7E03197F1F7C6
S113023000C000002A98EFECF7E03197F1F700C016
S1130240000085B92A9A8FEC97E00197F1F700C076
S113025000002A98EFECF7E03197F1F700C00000B6
S113026080E285B92A9A8FEC97E00197F1F700C0F4
S113027000002A98EFECF7E03197F1F700C0000096
S113028088E20E948C008CE00E948C00C8E6D0E0DA
S113029060E011E0160FCE010E94DE002896612F67
S11302A01830B9F7DF91CF911F910895CF93DF9361
S11302B0CDB7DEB727970FB6F894DEBF0FBECDBF1C
S11302C087E0E0E0F1E0DE01119601900D928A955D
S11302D0E1F741E060E0CE0101960E94C00027965C
S11302E00FB6F894DEBF0FBECDBFDF91CF91089556
S11302F00E94000160E080E00E94B1000E9456016B
S1090300FFCFF894FFCFCB
S10B03064345525241444F00EB
S9030000FC
