:100000000C94CC000C94DE000C94DE000C94DE000A
:100010000C94DE000C94DE000C94DE000C94DE00E8
:100020000C94DE000C94DE000C94DE000C94DE00D8
:100030000C94DE000C94DE000C94DE000C94DE00C8
:100040000C94DE000C94DE000C94DE000C94DE00B8
:100050000C94DE000C94DE000C94DE000C94DE00A8
:100060000C94DE000C94DE00DB0129022902290237
:10007000DF012902E301E7012902290229022902FD
:100080002902290229022902290229022902290218
:100090002902290229022902290229022902290208
:1000A00029022902290229022902290229022902F8
:1000B00029022902290229022902290229022902E8
:1000C00029022902290229022902290229022902D8
:1000D00029022902290229022902290229022902C8
:1000E0002902290229022902EB01290229022902F7
:1000F000EF012902F301F70129022902290229024D
:100100002902290229022902290229022902290297
:100110002902290229022902290229022902290287
:100120002902290229022902FB01290229022902A6
:10013000FF012902030207022902290229022902DA
:1001400029022902290229020B0229022902290275
:100150000F02290213021702001F000000001F00F7
:10016000001F101010101F00001F181818181F0073
:10017000001F1C1C1C1C1F00001F1E1E1E1E1F001B
:10018000001F1F1F1F1F1F0003070F1F0F07030064
:10019000181C1E1F1E1C180011241FBECFEFD8E014
:1001A000DEBFCDBF21E0A0E0B1E001C01D92A030D4
:1001B000B207E1F70E942D020C9452020C94000049
:1001C000982F907F95B9289A2A9A2AE62A95F1F7CE
:1001D00000C02A9828989AE69A95F1F700C020E185
:1001E000829FC001112485B9289A2A9A8AE68A95A5
:1001F000F1F700C02A9828989AE69A95F1F700C07E
:100200000895982F907F95B92A9AEFECF7E03197EF
:10021000F1F700C000002A98EFECF7E03197F1F712
:1002200000C00000F0E18F9FC001112485B92A9A17
:100230008FEC97E00197F1F700C000002A98EFECEF
:10024000F7E03197F1F700C000000895623031F017
:10025000633031F0613029F4805C03C08C5E01C0F2
:100260008C5A80680E9401010895FF920F931F939A
:10027000CF93DF93660F660F660F6064EC0168949E
:10028000FF24F3F8F60EFE01049111E0160F862FFD
:100290000E940101802F0E94E0002196612F1F1112
:1002A000F2CFDF91CF911F910F91FF9008951F938F
:1002B000CF93DF938FE295E70197F1F700C000003D
:1002C00015B815B884B1806F84B984B1876084B9DA
:1002D00080E385B92A9AEFECF7E03197F1F700C097
:1002E00000002A98EFECF7E03197F1F700C000002A
:1002F00085B92A9A8FEC97E00197F1F700C00000CA
:100300002A98EFECF7E03197F1F700C0000080E2A7
:1003100085B92A9A8FEC97E00197F1F700C00000A9
:100320002A98EFECF7E03197F1F700C0000088E27F
:100330000E9401018CE00E940101C8E5D1E060E06B
:1003400011E0160FCE010E9435012896612F18305A
:10035000B9F7DF91CF911F9108952BB130E1839FC1
:10036000C00111242F70822B8BB90895CF93DF9396
:10037000EC0180EF8AB98FE08BB980E00E94AD017B
:1003800089B1806F8F3F09F462C08EE00E94AD0199
:1003900089B1806F8F3F09F44EC0E9B18E2F90E094
:1003A000FC01E757F109E837F10508F052C0EC5CB1
:1003B000FF4F0C944C0287E3888381E04BC088E3B5
:1003C000888381E047C089E3888381E043C08FE26E
:1003D000888381E03FC084E3888381E03BC085E37C
:1003E000888381E037C086E3888381E033C08AE276
:1003F000888381E02FC081E3888381E02BC082E382
:10040000888381E027C083E3888381E023C08DE275
:10041000888381E01FC080E7888381E01BC080E380
:10042000888381E017C08DE3888381E013C08BE26D
:10043000888381E00FC08BB182958F70880F8F5FAA
:100440000E94AD0189B1806F8F3FA9F3A6CF80E0F4
:1004500001C081E0DF91CF910895CF93DF931F9288
:10046000CDB7DEB70E94570160E080E00E94260110
:100470001982CE0101960E94B601882319F0898164
:100480000E94E0002FEF80E792E0215080409040F2
:10049000E1F700C00000ECCFEE0FFF1F0590F491D4
:0804A000E02D0994F894FFCF50
:00000001FF
