:100000000C9454000C9469000C9469000C946900E1
:100010000C9469000C9469000C9469000C946900BC
:100020000C9469000C9469000C9469000C946900AC
:100030000C9469000C9469000C9469000C9469009C
:100040000C9469000C9469000C9469000C9469008C
:100050000C9469000C9469000C9469000C9469007C
:100060000C9469000C946900001F000000001F0040
:10007000001F101010101F00001F181818181F0064
:10008000001F1C1C1C1C1F00001F1E1E1E1E1F000C
:10009000001F1F1F1F1F1F0003070F1F0F07030055
:1000A000181C1E1F1E1C180011241FBECFEFD8E005
:1000B000DEBFCDBF11E0A0E0B1E0E4E0F3E002C0BC
:1000C00005900D92A830B107D9F70E9478010C94E1
:1000D00080010C940000982F907F95B9289A2A9A55
:1000E0002DE02A95F1F700002A9828989DE09A952E
:1000F000F1F7000020E1829FC001112485B9289A00
:100100002A9A8DE08A95F1F700002A9828989DE0B8
:100110009A95F1F700000895982F907F95B92A9A43
:10012000E9EFF0E03197F1F700C000002A98E9EF1D
:10013000F0E03197F1F700C00000F0E18F9FC001BF
:10014000112485B92A9A89EF90E00197F1F700C050
:1001500000002A98E9EFF0E03197F1F700C00000C5
:100160000895623031F0633031F0613029F4805C01
:1001700003C08C5E01C08C5A80680E948C00089578
:100180000F931F93CF938C01862F642F0E94B10091
:10019000C801F8012491222369F0C0E0FC01849198
:1001A0000E946B00CF5FC8018C0F911DFC01249150
:1001B0002111F4CFCF911F910F910895FF920F93CA
:1001C0001F93CF93DF93660F660F660F6064EC0199
:1001D0006894FF24F3F8F60EFE01049111E0160F67
:1001E000862F0E948C00802F0E946B002196612F29
:1001F0001F11F2CFDF91CF911F910F91FF900895C2
:100200001F93CF93DF9385EA9EE00197F1F700C03B
:10021000000015B815B884B1806F84B984B18760C7
:1002200084B980E385B92A9AE9EFF0E03197F1F7D4
:1002300000C000002A98E9EFF0E03197F1F700C024
:10024000000085B92A9A89EF90E00197F1F700C084
:1002500000002A98E9EFF0E03197F1F700C00000C4
:1002600080E285B92A9A89EF90E00197F1F700C002
:1002700000002A98E9EFF0E03197F1F700C00000A4
:1002800088E20E948C008CE00E948C00C8E6D0E0DE
:1002900060E011E0160FCE010E94DE002896612F6B
:1002A0001830B9F7DF91CF911F910895CF93DF9365
:1002B000CDB7DEB727970FB6F894DEBF0FBECDBF20
:1002C00087E0E0E0F1E0DE01119601900D928A9561
:1002D000E1F740E060E0CE0101960E94C000279661
:1002E0000FB6F894DEBF0FBECDBFDF91CF9108955A
:1002F0000E9400010E9456018EE40E946B00FFCF15
:04030000F894FFCF9F
:080304004345525241444F00F1
:00000001FF
