S01D00004365727261647572615F656C656374726F6E6963612E7372656386
S11300000C94CC000C94E9000C94E9000C94E900E5
S11300100C94E9000C94E9000C94E9000C94E900B8
S11300200C94E9000C94E9000C94E9000C94E900A8
S11300300C94E9000C94E9000C94E9000C94E90098
S11300400C94E9000C94E9000C94E9000C94E90088
S11300500C94E9000C94E9000C94E9000C94E90078
S11300600C94E9000C94E900FF001F011F011F011B
S113007001011F01030105011F011F011F011F01D0
S11300801F011F011F011F011F011F011F011F016C
S11300901F011F011F011F011F011F011F011F015C
S11300A01F011F011F011F011F011F011F011F014C
S11300B01F011F011F011F011F011F011F011F013C
S11300C01F011F011F011F011F011F011F011F012C
S11300D01F011F011F011F011F011F011F011F011C
S11300E01F011F011F011F0107011F011F011F0124
S11300F009011F010B010D011F011F011F011F0138
S11301001F011F011F011F011F011F011F011F01EB
S11301101F011F011F011F011F011F011F011F01DB
S11301201F011F011F011F010F011F011F011F01DB
S113013011011F01130115011F011F011F011F01DF
S11301401F011F011F011F0117011F011F011F01B3
S113015019011F011B011D01001F000000001F00E9
S1130160001F101010101F00001F181818181F006F
S1130170001F1C1C1C1C1F00001F1E1E1E1E1F0017
S1130180001F1F1F1F1F1F0003070F1F0F07030060
S1130190181C1E1F1E1C180011241FBECFEFD8E010
S11301A0DEBFCDBF11E0A0E0B1E0EAECF4E002C0B4
S11301B005900D92A230B107D9F721E0A2E0B1E099
S11301C001C01D92A430B207E1F70E945B020C94B7
S11301D063020C9400002BB130E1839FC001112411
S11301E02F70822B8BB9089590E0FC01E757F10939
S11301F0E837F10520F5EC5CFF4F0C945D0281E3D8
S1130200089582E3089583E3089581E4089584E3DF
S1130210089585E3089586E3089582E4089587E3C5
S1130220089588E3089589E3089583E408958AE2AC
S1130230089580E3089583E2089584E4089580E0B6
S11302400895CF93DF93EC0180EF8AB98FE08BB9E7
S113025080E00E94EB0089B1806F8F3FC9F08EE08F
S11302600E94EB0089B1806F8F3F31F089B10E9409
S1130270F400888381E00DC08BB182958F70880F64
S11302808F5F0E94EB0089B1806F8F3FA9F3EECF9F
S113029080E0DF91CF910895CF93DF93EC0183E069
S11302A091E00E942101811106C09FEF9093020109
S11302B09093000114C0809103019091020189136D
S11302C00BC090910001891739F088838091030154
S11302D08093000181E003C08093020180E0DF91FC
S11302E0CF910895982F907F95B9289A2A9A2AE653
S11302F02A95F1F700C02A9828989AE69A95F1F77A
S113030000C020E1829FC001112485B9289A2A9A4D
S11303108AE68A95F1F700C02A9828989AE69A9571
S1130320F1F700C00895982F907F95B92A9AEFECC1
S1130330F7E03197F1F700C000002A98EFECF7E0FE
S11303403197F1F700C00000F0E18F9FC001112444
S113035085B92A9A8FEC97E00197F1F700C0000065
S11303602A98EFECF7E03197F1F700C00000089508
S1130370623031F0633031F0613029F4805C03C0C5
S11303808C5E01C08C5A80680E9493010895FF928C
S11303900F931F93CF93DF93660F660F660F60640E
S11303A0EC016894FF24F3F8F60EFE01049111E0C9
S11303B0160F862F0E949301802F0E9472012196AE
S11303C0612F1F11F2CFDF91CF911F910F91FF90F9
S11303D008951F93CF93DF938FE295E70197F1F789
S11303E000C0000015B815B884B1806F84B984B119
S11303F0876084B980E385B92A9AEFECF7E03197F6
S1130400F1F700C000002A98EFECF7E03197F1F71C
S113041000C0000085B92A9A8FEC97E00197F1F7A4
S113042000C000002A98EFECF7E03197F1F700C024
S1130430000080E285B92A9A8FEC97E00197F1F7E2
S113044000C000002A98EFECF7E03197F1F700C004
S1130450000088E20E9493018CE00E949301C8E5A9
S1130460D1E060E011E0160FCE010E94C70128968A
S1130470612F1830B9F7DF91CF911F910895CF9371
S1130480DF931F92CDB7DEB70E94E90160E080E000
S11304900E94B8011982CE0101960E944C01882362
S11304A019F089810E9472018FE19EE40197F1F7AE
S11304B000C00000EFCF0E943F02EE0FFF1F059027
S10D04C0F491E02D0994F894FFCFA5
S10504CAFF002D
S9030000FC
