S01D00004365727261647572615F656C656374726F6E6963612E7372656386
S11300000C94D6000C94F3000C94F3000C94F300BD
S11300100C94F3000C94F3000C94F3000C94F30090
S11300200C94F3000C94F3000C94F3000C94F30080
S11300300C94F3000C94F3000C9405060C94F30058
S11300400C94F3000C94F3000C94F3000C94F30060
S11300500C94F3000C94F3000C94F3000C94F30050
S11300600C94F3000C94F300310438043E0443046C
S113007048044E04540459045F0465048604A60429
S1130080A604A6048804A6048A048C04A604A60470
S1130090A604A604A604A604A604A604A604A6040C
S11300A0A604A604A604A604A604A604A604A604FC
S11300B0A604A604A604A604A604A604A604A604EC
S11300C0A604A604A604A604A604A604A604A604DC
S11300D0A604A604A604A604A604A604A604A604CC
S11300E0A604A604A604A604A604A604A604A604BC
S11300F0A604A604A604A604A604A6048E04A604C4
S1130100A604A6049004A60492049404A604A604D7
S1130110A604A604A604A604A604A604A604A6048B
S1130120A604A604A604A604A604A604A604A6047B
S1130130A604A604A604A604A604A6049604A6047B
S1130140A604A6049804A6049A049C04A604A6047F
S1130150A604A604A604A604A604A6049E04A60453
S1130160A604A604A004A604A204A404001F00007C
S113017000001F00001F101010101F00001F18188F
S113018018181F00001F1C1C1C1C1F00001F1E1E13
S11301901E1E1F00001F1F1F1F1F1F0003070F1F0E
S11301A00F070300181C1E1F1E1C180011241FBE5D
S11301B0CFEFD8E0DEBFCDBF12E0A0E0B1E0EAE2CD
S11301C0FDE002C005900D92A833B107D9F722E0F3
S11301D0A8E3B2E001C01D92A034B207E1F70E9487
S11301E0CE050C9493060C9400000F931F93CF93A9
S11301F08C0160E070E080E090E00E943F05809117
S11302000001882369F0C0E0F801EC0FF11D808142
S113021090E00E94F904CF5F80910001C817A0F319
S1130220CF911F910F9108950F931F93CF938C013A
S113023061E070E080E090E00E943F058091000161
S1130240882369F0C0E0F801EC0FF11D808190E093
S11302500E94F904CF5F80910001C817A0F3CF91E9
S11302601F910F91089580913A0290913B0201965B
S113027090933B0280933A0281E991E00E94F50059
S113028080E491E00E94140120913A0230913B02F3
S113029080913201909133018217930730F41092C8
S11302A03B0210923A0281E0089583E00895809120
S11302B03A0290913B02019690933B0280933A025A
S11302C081E991E00E94F50080E591E00E9414012B
S11302D020913A0230913B02809134019091350192
S11302E08217930730F410923B0210923A0281E095
S11302F0089584E0089580913A0290913B0201961A
S113030090933B0280933A0280E691E00E94F500CC
S113031080E791E00E94140120913A0230913B025F
S113032080913201909133018217930730F4109237
S11303303B0210923A0281E0089587E00895DC01BF
S1130340E6E1F1E08C91805D848311968C911197A4
S1130350805D858312968C911297805D87831396B6
S11303608C911397805D808714968C911497805D8F
S1130370828715968C91805D8387CF010E94F5005A
S11303800895FC01A6E0B1E014968C911497805373
S1130390808315968C9115978053818317968C9141
S11303A017978053828318968C9118978053838370
S11303B01A968C911A97805384831B968C91805340
S11303C0858308950F931F93CF938C01C62F86E0E6
S11303D091E00E94F50080E891E00E941401CA3384
S11303E028F4C03330F4C33289F137C0C13459F131
S11303F034C0E0910301E43051F4C333E8F4C09312
S11304003802C0930A0185E08093030115C08091EE
S11304103802823340F4F0E0EA5FFE4FC08384E0A8
S11304208093030109C0C43338F4F0E0EA5FFE4F5F
S1130430C08384E08093030160E0809103010E9403
S11304403F0588E00BC0C8010E94C10184E080938D
S113045003010E94CA0581E001C088E0CF911F9189
S11304600F9108950F931F93CF938C01C62F86E0AD
S113047091E00E94F50080E891E00E941401CA33E3
S113048028F4C03330F4C33209F127C0C134D9F0A1
S113049024C0E0910201E73041F4C63368F4C0930C
S11304A00D0188E08093020107C0F0E0EA5FFE4F8F
S11304B0C08387E08093020160E0809102010E9482
S11304C03F0589E00BC0C8010E94C10187E0809309
S11304D002010E94CA0581E001C089E0CF911F9109
S11304E00F9108950F931F93CF938C01C62F86E02D
S11304F091E00E94F50080E891E00E941401CA3363
S113050028F4C03330F4C33209F127C0C134D9F020
S113051024C0E0910101EA3041F4C63368F4C09389
S113052010018BE08093010107C0F0E0EA5FFE4F09
S1130530C0838AE08093010160E0809101010E9400
S11305403F058AE00BC0C8010E94C1018AE0809384
S113055001010E94CA0581E001C08AE0CF911F9188
S11305600F910895809139028230A9F028F48823EC
S113057041F0813059F01EC0833091F08430A9F0ED
S113058019C080E991E00E941401089581EA91E084
S11305900E941401089582EB91E00E9414010895D1
S11305A083EC91E00E941401089584ED91E00E948F
S11305B01401089585EE91E00E9414010895141623
S11305C0150654F4FC01A62FB72F480F591F91911B
S11305D09D93E417F507D9F70895CF93C82FCB015E
S11305E00E949F0186EF91E00E941401C134C9F07A
S11305F028F480ED8C0F8A3040F043C0C33489F175
S113060000F1C434F1F585E03DC080913902E82F52
S1130610F0E0E65DFE4FC0838F5F8093390282E095
S113062031C040E150E066E071E086E191E00E9473
S1130630DF0260E084E00E943F050E94C60588E076
S113064021C040E150E066E071E086E191E00E9463
S1130650DF0260E087E00E943F050E94C60589E052
S113066011C040E150E066E071E086E191E00E9453
S1130670DF0260E08AE00E943F050E94C6058AE02E
S113068001C081E0CF910895CF93C82F87E092E015
S11306900E94F5000E94B202CA3328F4C03330F439
S11306A0C33271F13AC0C43489F037C08091390241
S11306B090910501891798F5E82FF0E0E65DFE4F6B
S11306C0C0838F5F8093390286E02CC0409105017E
S11306D080913902841728F150E066E271E08AE2E1
S11306E091E00E94DF024091050150E06AE271E06E
S11306F08EE291E00E94DF021092390287E012C07C
S11307004091050150E06AE271E08EE291E00E94BE
S1130710DF021092390281E005C086E003C086E062
S113072001C086E0CF910895CF9340910501442301
S1130730C9F090912A0180912601981315C0EBE22B
S1130740F1E0A7E2B1E02FEF240F30E0255D3E4F4A
S113075004C091918D91981309C0E217F307C9F76A
S1130760C1E005C0C1E003C0C0E001C0C0E050E08A
S11307706AE271E08EE291E00E94DF028C2FCF9159
S11307800895CF93C82F87E192E00E94F5000E945C
S1130790B20280ED8C0F8A30B0F480913902E82FD8
S11307A0F0E0E65DFE4FC0838F5F80933902909145
S11307B00501891750F0109239020E94940388238E
S11307C031F083E005C082E003C082E001C084E030
S11307D0CF910895CF93C82F87E292E00E94F5004D
S11307E00E94B202C332D9F038F180ED8C0F8A3006
S11307F018F580913902E82FF0E0E65DFE4FC083E2
S11308008F5F80933902909105018917B8F0109297
S113081039020E949403882399F086E012C0409123
S1130820050150E06AE271E08EE291E00E94DF028D
S11308301092390281E005C085E003C085E001C063
S113084084E0CF910895262FE09104014E2F50E0CB
S1130850FA013197EA30F105F0F5EC5CFF4F0C94A6
S11308608D06BC01822F0E94ED028093040108953D
S1130870822F0E94C1038093040108950E943301D2
S11308808093040108950E94570180930401089500
S1130890822F0E94EA03809304010895822F0E940C
S11308A044038093040108950E947B018093040112
S11308B00895622F0E94E201809304010895622F3B
S11308C00E943202809304010895622F0E947202F2
S11308D0809304010895BC01822F0E94ED0280934D
S11308E0040108952BB130E1839FC00111242F70BE
S11308F0822B8BB9089590E0FC01E757F109E837A2
S1130900F10520F5E25CFF4F0C948D0681E3089518
S113091082E3089583E3089581E4089584E30895C8
S113092085E3089586E3089582E4089587E30895AE
S113093088E3089589E3089583E408958AE2089595
S113094080E3089583E2089584E4089580E008959F
S1130950CF93DF93EC0180EF8AB98FE08BB980E00D
S11309600E94720489B1806F8F3FC9F08EE00E94AB
S1130970720489B1806F8F3F31F089B10E947B048A
S1130980888381E00DC08BB182958F70880F8F5F53
S11309900E94720489B1806F8F3FA9F3EECF80E08B
S11309A0DF91CF910895CF93DF93EC018DE392E033
S11309B00E94A804811106C09FEF90933C0290937B
S11309C0360114C080913D0290913C0289130BC002
S11309D090913601891739F0888380913D02809384
S11309E0360181E003C080933C0280E0DF91CF9127
S11309F00895982F907F95B9289A2A9A2AE62A95DD
S1130A00F1F700C02A9828989AE69A95F1F700C061
S1130A1020E1829FC001112485B9289A2A9A8AE686
S1130A208A95F1F700C02A9828989AE69A95F1F7E2
S1130A3000C00895982F907F95B92A9AEFECF7E0BB
S1130A403197F1F700C000002A98EFECF7E03197F6
S1130A50F1F700C00000F0E18F9FC001112485B9B7
S1130A602A9A8FEC97E00197F1F700C000002A98CA
S1130A70EFECF7E03197F1F700C000000895623021
S1130A8031F0633031F0613029F4805C03C08C5E56
S1130A9001C08C5A80680E941A050895FF920F9332
S1130AA01F93CF93DF93660F660F660F6064EC01AC
S1130AB06894FF24F3F8F60EFE01049111E0160F7A
S1130AC0862F0E941A05802F0E94F9042196612F17
S1130AD01F11F2CFDF91CF911F910F91FF900895D5
S1130AE01F93CF93DF938FE295E70197F1F700C04F
S1130AF0000015B815B884B1806F84B984B18760DB
S1130B0084B980E385B92A9AEFECF7E03197F1F7DD
S1130B1000C000002A98EFECF7E03197F1F700C02D
S1130B20000085B92A9A8FEC97E00197F1F700C08D
S1130B3000002A98EFECF7E03197F1F700C00000CD
S1130B4080E285B92A9A8FEC97E00197F1F700C00B
S1130B5000002A98EFECF7E03197F1F700C00000AD
S1130B6088E20E941A058CE00E941A05CCE6D1E0C6
S1130B7060E011E0160FCE010E944E052896612F09
S1130B801830B9F7DF91CF911F9108958FE00E943B
S1130B901A0508958CE00E941A050895CF93DF93F7
S1130BA0CDB7DEB727970FB6F894DEBF0FBECDBF23
S1130BB084E687BD82E084BD85BD80936E00789411
S1130BC086E0EAE3F1E0DE01119601900D928A9548
S1130BD0E1F71F8284E690E00E9414060E947005EB
S1130BE010923E02CE0101960E9428061F82CE0179
S1130BF007960E94D3046F81CE0101960E942304BC
S1130C0080913E028823E1F3EBCF1F920F920FB63F
S1130C100F9211248F9381E080933E028F910F9065
S1130C200FBE0F901F901895BC0188EE93E00E94B0
S1130C3079066115710529F07093380160933701C5
S1130C40089581E090E090933801809337010895EE
S1130C50FC0190913901913019F09230B9F0089566
S1130C6081E08093390180913F028F5F80933F023E
S1130C7090E0209137013091380182179307C0F139
S1130C8010923F0282E080933901089581E08093BD
S1130C90390180913F028F5F80933F0285818F5F8E
S1130CA08A3010F485830895158284818F5F86309D
S1130CB010F484830895148283818F5F8A3010F442
S1130CC083830895138282818F5F863010F4828338
S1130CD00895128281818F5F8A3010F48183089590
S1130CE0118280818F5F833010F480830895108295
S1130CF00895AA1BBB1B51E107C0AA1FBB1FA6175F
S1130D00B70710F0A61BB70B881F991F5A95A9F7B0
S1130D1080959095BC01CD010895EE0FFF1F0590BD
S10D0D20F491E02D0994F894FFCF3C
S1130D2A100A070401042020202068683A6D6D3AED
S1130D3A7373202020202020202068683A6D6D3AA1
S1130D4A7373202020203038353278787878787890
S1130D5A78781E001400FF0A000100040200000053
S1130D6A202020204142494552544F20202020006F
S1130D7A2020202044454E454741444F202020004E
S1130D8A202046696E20696E677265736F202000A1
S1130D9A20206E7565766120636C6176652020007B
S1130DAA202020204345525241444F202020200035
S1130DBA2020202020202020202020202020202025
S1130DCA002020202020202A20202020202020202B
S1130DDA20002020202020202A2A20202020202011
S1130DEA2020002020202020202A2A2A20202020F7
S1130DFA202020002020202020202A2A2A2A2020DD
S1130E0A20202020002020202020204F4F42202074
S1130E1A20202020200020202020434552524144F3
S1130E2A4F202020202000436C617665204E756592
S1130E3A76612020202000496E67726573617220F2
S1130E4A636C6176652000436C6176652061637426
S10B0E5A75616C2020200000EA
S9030000FC
