:100000000C94D6000C94F3000C94F3000C94F300C1
:100010000C94F3000C94F3000C94F3000C94F30094
:100020000C94F3000C94F3000C94F3000C94F30084
:100030000C94F3000C94F3000C9481060C94F300E0
:100040000C94F3000C94F3000C94F3000C94F30064
:100050000C94F3000C94F3000C94F3000C94F30054
:100060000C94F3000C94F300AD04B404BA04BF0480
:10007000C404CA04D004D504DB04E104020522054B
:10008000220522050405220506050805220522058C
:100090002205220522052205220522052205220528
:1000A0002205220522052205220522052205220518
:1000B0002205220522052205220522052205220508
:1000C00022052205220522052205220522052205F8
:1000D00022052205220522052205220522052205E8
:1000E00022052205220522052205220522052205D8
:1000F0002205220522052205220522050A052205E0
:10010000220522050C0522050E05100522052205F3
:1001100022052205220522052205220522052205A7
:100120002205220522052205220522052205220597
:100130002205220522052205220522051205220597
:10014000220522051405220516051805220522059B
:100150002205220522052205220522051A0522056F
:10016000220522051C0522051E052005001F000092
:1001700000001F00001F101010101F00001F181893
:1001800018181F00001F1C1C1C1C1F00001F1E1E17
:100190001E1E1F00001F1F1F1F1F1F0003070F1F12
:1001A0000F070300181C1E1F1E1C180011241FBE61
:1001B000CFEFD8E0DEBFCDBF12E0A0E0B1E0ECE4CD
:1001C000FEE002C005900D92AE32B107D9F722E0F1
:1001D000AEE2B2E001C01D92AD33B207E1F70E947A
:1001E00046060C9424070C9400000F931F93CF93A2
:1001F0008C0160E070E080E090E00E94B7058091A3
:100200000001882369F0C0E0F801EC0FF11D808146
:1002100090E00E947505CF5F90910001C917A0F38F
:10022000CF911F910F9108950F931F93CF938C013E
:1002300061E070E080E090E00E94B70580910001ED
:10024000882369F0C0E0F801EC0FF11D808190E097
:100250000E947505CF5F90910001C917A0F3CF915F
:100260001F910F9108958091350290913602019669
:10027000909336028093350280E491E00E94F5006D
:1002800081E591E00E9414012091350230913602FF
:1002900080913201909133018217930730F41092CC
:1002A00036021092350281E0089583E0089580912E
:1002B0003502909136020196909336028093350272
:1002C00080E491E00E94F50082E691E00E94140132
:1002D00020913502309136028091340190913501A0
:1002E0008217930730F4109236021092350281E0A3
:1002F000089584E008958091350290913602019628
:10030000909336028093350283E791E00E94F500D6
:1003100084E891E00E941401209135023091360268
:1003200080913201909133018217930730F410923B
:1003300036021092350281E0089587E00895DC01CD
:10034000E3E1F1E08C91805D848311968C911197AB
:10035000805D858312968C911297805D87831396BA
:100360008C911397805D808714968C911497805D93
:10037000828715968C91805D8387CF010E94F5005E
:10038000089580912E028230A9F028F4882341F04C
:10039000813059F01EC0833091F08430A9F019C02B
:1003A00080E491E00E941401089585E991E00E94A3
:1003B0001401089586EA91E00E941401089587EBE4
:1003C00091E00E941401089588EC91E00E941401CC
:1003D000089589ED91E00E94140108951416150600
:1003E00054F4FC01A62FB72F480F591F91919D93EC
:1003F000E417F507D9F708950F931F93CF93C82FEC
:100400008B01CB010E949F018AEE91E00E941401B2
:10041000C134D9F028F480ED8C0F8A3050F072C0CE
:10042000C33409F450C080F1C43409F06BC085E0D6
:100430006AC080912E02E82FF0E0E95DFE4FC08394
:100440008F5F80932E0282E05EC040E150E063E067
:1004500071E083E191E00E94EE0146E050E06FE23E
:1004600072E0C8010E94EE0183E091E00E94F50075
:100470008AEE91E00E94140160E084E00E94B705DA
:100480000E943E0688E03FC040E150E063E071E03A
:1004900083E191E00E94EE0146E050E06FE272E0FD
:1004A000C8010E94EE0183E091E00E94F5008AEE0F
:1004B00091E00E94140160E087E00E94B7050E946D
:1004C0003E0689E020C040E150E063E071E083E156
:1004D00091E00E94EE0146E050E06FE272E0C80158
:1004E0000E94EE0183E091E00E94F5008AEE91E027
:1004F0000E94140160E08AE00E94B7050E943E0657
:100500008AE001C081E0CF911F910F910895CF93B0
:10051000C82F8BEF91E00E94F5000E94C101CA3301
:1005200028F4C03330F4C33271F13AC0C43489F0D6
:1005300037C080912E0290910201891798F5E82F1B
:10054000F0E0E95DFE4FC0838F5F80932E0286E06E
:100550002CC04091020180912E02841728F150E0B6
:1005600063E271E087E291E00E94EE0140910201B6
:1005700050E067E271E08BE291E00E94EE011092A0
:100580002E0287E012C04091020150E067E271E064
:100590008BE291E00E94EE0110922E0281E005C0F4
:1005A00086E003C086E001C086E0CF910895CF9336
:1005B000409102014423C9F09091270180912301C9
:1005C000981315C0E8E2F1E0A4E2B1E02FEF240FA8
:1005D00030E0285D3E4F04C091918D91981309C081
:1005E000E217F307C9F7C1E005C0C1E003C0C0E0EE
:1005F00001C0C0E050E067E271E08BE291E00E9450
:10060000EE018C2FCF910895CF93C82F8CE092E00C
:100610000E94F5000E94C10180ED8C0F8A30B8F471
:1006200090912E02E92FF0E0E95DFE4FC08381E05A
:10063000890F80932E0290910201891750F0109239
:100640002E020E94D702882331F083E005C082E0A9
:1006500003C082E001C084E0CF910895CF93C82FFA
:100660008DE192E00E94F5000E94C101C332D9F0F1
:1006700038F180ED8C0F8A3018F580912E02E82F2A
:10068000F0E0E95DFE4FC0838F5F80932E02909172
:1006900002018917B8F010922E020E94D702882317
:1006A00099F086E012C04091020150E067E271E0EB
:1006B0008BE291E00E94EE0110922E0281E005C0D3
:1006C00085E003C085E001C084E0CF9108959C01DE
:1006D00080ED97E0B9010E940A077093350160939D
:1006E000340188EB9BE0B9010E940A077093330143
:1006F000609332010895FC018081823021F4818170
:10070000843018F016C08330B0F48281853021F433
:100710008381863018F011C0863088F4948195303A
:1007200019F48581863068F481E0963058F080E0D5
:10073000089580E0089580E0089580E0089580E0C5
:10074000089580E008950F931F93CF93DF9300D017
:1007500000D000D0CDB7DEB78C01DE01119686E067
:10076000FD0111928A95E9F7E3E0F1E0848180537D
:100770008983958190539A83978190539B83908529
:1007800090539C83928590539D83938590539E8331
:10079000CD010E947B03882339F046E050E0B80188
:1007A000CE0101960E94EE0126960FB6F894DEBFA8
:1007B0000FBECDBFDF91CF911F910F9108956A3386
:1007C00028F4603330F4633241F135C06134E1F034
:1007D00032C080913101E82FF0E0ED5FFE4F608381
:1007E000843021F485E08093310103C084E080935C
:1007F000310183E091E00E94F50060E080913101D9
:100800000E94B70588E008950E94A30384E08093C6
:1008100031010E94420681E0089546E050E0BC01AB
:100820008FE292E00E94EE0184E0809331010E9409
:10083000420681E0089588E008956A3328F4603321
:1008400030F4633259F138C06234F9F035C0E091C8
:100850003001E73041F4663368F460930A0188E0C0
:100860008093300107C0F0E0ED5FFE4F608387E0CA
:100870008093300183E091E00E94F50060E0809178
:1008800030010E94B70589E008950E94A30387E024
:10089000809330010E94420681E0089546E050E0D6
:1008A000BC018FE292E00E94EE0187E0809330016C
:1008B0000E94420681E0089589E008956A3328F491
:1008C000603330F4633259F138C06334F9F035C025
:1008D000E0912F01EA3041F4663368F460930D0132
:1008E0008BE080932F0107C0F0E0ED5FFE4F608347
:1008F0008AE080932F0183E091E00E94F50060E0A0
:1009000080912F010E94B7058AE008950E94A303F9
:1009100084E0809331010E94420681E0089546E020
:1009200050E0BC018FE292E00E94EE018AE08093E9
:100930002F010E94420681E008958AE00895262F43
:10094000E09101014E2F50E0FA013197EA30F105B4
:10095000F0F5EC5CFF4F0C941E07BC01822F0E9447
:10096000FC01809301010895822F0E94040380936B
:10097000010108950E9433018093010108950E94AE
:100980005701809301010895822F0E942E038093C6
:1009900001010895822F0E9487028093010108952A
:1009A0000E947B01809301010895622F0E94DF0362
:1009B000809301010895622F0E941D04809301011C
:1009C0000895622F0E945E04809301010895BC0186
:1009D000822F0E94FC018093010108952BB130E128
:1009E000839FC00111242F70822B8BB9089590E052
:1009F000FC01E757F109E837F10520F5E25CFF4F0C
:100A00000C941E0781E3089582E3089583E308951B
:100A100081E4089584E3089585E3089586E30895C5
:100A200082E4089587E3089588E3089589E30895AB
:100A300083E408958AE2089580E3089583E20895A7
:100A400084E4089580E00895CF93DF93EC0180EF74
:100A50008AB98FE08BB980E00E94EE0499B1906F63
:100A60009F3FC9F08EE00E94EE0489B1806F8F3FF6
:100A700031F089B10E94F704888381E00DC08BB109
:100A800082958F70880F8F5F0E94EE0499B1906FEE
:100A90009F3FA9F3EECF80E0DF91CF910895CF93F0
:100AA000DF93EC0188E392E00E942405811106C0E7
:100AB0009FEF909337029093360114C090913802C3
:100AC0002091370292130BC080913601981739F0AC
:100AD0009883809138028093360181E003C090931F
:100AE000370280E0DF91CF910895982F907F95B9DC
:100AF000289A2A9A20E52A95F1F72A98289890E5CD
:100B00009A95F1F720E1829FC001112485B9289AB6
:100B10002A9A80E58A95F1F72A98289890E59A957F
:100B2000F1F70895982F907F95B92A9AEFECF7E0A6
:100B30003197F1F700C000002A98EFECF7E0319709
:100B4000F1F700C00000F0E18F9FC001112485B9CA
:100B50002A9A8FEC97E00197F1F700C000002A98DD
:100B6000EFECF7E03197F1F700C000000895623034
:100B700031F0633031F0613029F4805C03C08C5E69
:100B800001C08C5A80680E9492050895FF920F93CD
:100B90001F93CF93DF93660F660F660F6064EC01BF
:100BA0006894FF24F3F8F60EFE01049111E0160F8D
:100BB000862F0E949205802F0E9475052196612F35
:100BC0001F11F2CFDF91CF911F910F91FF900895E8
:100BD0001F93CF93DF938FE295E70197F1F700C062
:100BE000000015B815B884B1806F84B984B18760EE
:100BF00084B980E385B92A9AEFECF7E03197F1F7F1
:100C000000C000002A98EFECF7E03197F1F700C040
:100C1000000085B92A9A8FEC97E00197F1F700C0A0
:100C200000002A98EFECF7E03197F1F700C00000E0
:100C300080E285B92A9A8FEC97E00197F1F700C01E
:100C400000002A98EFECF7E03197F1F700C00000C0
:100C500088E20E9492058CE00E949205CCE6D1E0E9
:100C600060E011E0160FCE010E94C6052896612FA4
:100C70001830B9F7DF91CF911F9108958FE00E944E
:100C8000920508958CE00E9492050895CF93DF931A
:100C9000CDB7DEB727970FB6F894DEBF0FBECDBF36
:100CA00086E0EAE3F1E0DE01119601900D928A956B
:100CB000E1F71F8284E690E00E94A50684E690E0BA
:100CC0000E9467030E94E8058AEF87BD82E084BD29
:100CD00085BD80936E00789410923B02CE01019600
:100CE0000E94B9061F82CE0107960E944F056F81B0
:100CF000CE0101960E949F0480913B028823E1F37C
:100D0000EBCF1F920F920FB60F9211248F939F93E8
:100D10008091390290913A02019690933A02809321
:100D200039028091390290913A02C29739F481E0F8
:100D300080933B0210923A02109239029F918F9158
:100D40000F900FBE0F901F901895BC0188EE93E096
:100D50000E940A076115710529F0709338016093AC
:100D60003701089581E090E0909338018093370136
:100D70000895FC0190913901913019F09230B9F049
:100D8000089581E08093390180913C028F5F8093C8
:100D90003C0290E02091370130913801821793078F
:100DA000C0F110923C0282E080933901089581E005
:100DB0008093390180913C028F5F80933C02858152
:100DC0008F5F8A3010F485830895158284818F5F48
:100DD000863010F484830895148283818F5F8A3073
:100DE00010F483830895138282818F5F863010F41C
:100DF00082830895128281818F5F8A3010F481830B
:100E00000895118280818F5F833010F4808308956C
:100E100010820895AA1BBB1B51E107C0AA1FBB1F6C
:100E2000A617B70710F0A61BB70B881F991F5A9576
:100E3000A9F780959095BC01CD010895EE0FFF1F95
:0C0E40000590F491E02D0994F894FFCF88
:100E4C001001042020202068683A6D6D3A737320DD
:100E5C002020202020202068683A6D6D3A73732082
:100E6C002020203038353278787878787878780A7D
:100E7C0007041E001400FF0A000100040200000019
:100E8C002020202020202020202020202020202056
:100E9C0000202020204142494552544F2020202040
:100EAC0020002020202044454E454741444F20201F
:100EBC00202000202046696E20696E677265736F72
:100ECC002020200020206E7565766120636C617691
:100EDC0065202020002020202020202A20202020D7
:100EEC002020202020002020202020202A2A202002
:100EFC00202020202020002020202020202A2A2AE8
:100F0C0020202020202020002020202020202A2AE1
:100F1C002A2A202020202020002020202020204FA2
:100F2C004F4220202020202020002020202043453C
:100F3C00525241444F202020202000436C617665A2
:100F4C00204E75657661202020202000496E677246
:100F5C006573617220636C617665202000436C615F
:0E0F6C0076652061637475616C202020200082
:00000001FF
